{
  "_format": "hh-sol-artifact-1",
  "contractName": "Voting",
  "sourceName": "contracts/Voting.sol",
  "abi": [
    {
      "inputs": [],
      "stateMutability": "nonpayable",
      "type": "constructor"
    },
    {
      "anonymous": false,
      "inputs": [
        {
          "indexed": false,
          "internalType": "string",
          "name": "message",
          "type": "string"
        }
      ],
      "name": "Error",
      "type": "event"
    },
    {
      "anonymous": false,
      "inputs": [
        {
          "indexed": true,
          "internalType": "address",
          "name": "candidateAddress",
          "type": "address"
        },
        {
          "indexed": false,
          "internalType": "string",
          "name": "candidateName",
          "type": "string"
        },
        {
          "indexed": false,
          "internalType": "uint256",
          "name": "candidateId",
          "type": "uint256"
        }
      ],
      "name": "LogCandidateAdded",
      "type": "event"
    },
    {
      "anonymous": false,
      "inputs": [
        {
          "indexed": true,
          "internalType": "address",
          "name": "voterAddress",
          "type": "address"
        },
        {
          "indexed": false,
          "internalType": "string",
          "name": "voterName",
          "type": "string"
        },
        {
          "indexed": false,
          "internalType": "uint256",
          "name": "voterId",
          "type": "uint256"
        }
      ],
      "name": "LogVoterAdded",
      "type": "event"
    },
    {
      "inputs": [
        {
          "internalType": "address",
          "name": "_candidateAddress",
          "type": "address"
        },
        {
          "internalType": "string",
          "name": "_candidateName",
          "type": "string"
        },
        {
          "internalType": "uint256",
          "name": "_candidateId",
          "type": "uint256"
        }
      ],
      "name": "addCandidate",
      "outputs": [],
      "stateMutability": "nonpayable",
      "type": "function"
    },
    {
      "inputs": [
        {
          "internalType": "uint256",
          "name": "",
          "type": "uint256"
        }
      ],
      "name": "candidates",
      "outputs": [
        {
          "internalType": "address",
          "name": "candidateAddress",
          "type": "address"
        },
        {
          "internalType": "string",
          "name": "CandidateName",
          "type": "string"
        },
        {
          "internalType": "uint256",
          "name": "CandidateId",
          "type": "uint256"
        },
        {
          "internalType": "uint256",
          "name": "voteCount",
          "type": "uint256"
        }
      ],
      "stateMutability": "view",
      "type": "function"
    },
    {
      "inputs": [
        {
          "internalType": "uint256",
          "name": "candidateId",
          "type": "uint256"
        }
      ],
      "name": "castVote",
      "outputs": [],
      "stateMutability": "nonpayable",
      "type": "function"
    },
    {
      "inputs": [],
      "name": "getAllCandidates",
      "outputs": [
        {
          "internalType": "address[]",
          "name": "candidateAddresses",
          "type": "address[]"
        },
        {
          "internalType": "string[]",
          "name": "names",
          "type": "string[]"
        },
        {
          "internalType": "uint256[]",
          "name": "voteCounts",
          "type": "uint256[]"
        }
      ],
      "stateMutability": "view",
      "type": "function"
    },
    {
      "inputs": [
        {
          "internalType": "uint256",
          "name": "_candidateId",
          "type": "uint256"
        }
      ],
      "name": "getCandidate",
      "outputs": [
        {
          "internalType": "address",
          "name": "",
          "type": "address"
        },
        {
          "internalType": "string",
          "name": "",
          "type": "string"
        },
        {
          "internalType": "uint256",
          "name": "",
          "type": "uint256"
        },
        {
          "internalType": "uint256",
          "name": "",
          "type": "uint256"
        }
      ],
      "stateMutability": "view",
      "type": "function"
    },
    {
      "inputs": [
        {
          "internalType": "uint256",
          "name": "_voterId",
          "type": "uint256"
        }
      ],
      "name": "getVoter",
      "outputs": [
        {
          "internalType": "address",
          "name": "",
          "type": "address"
        },
        {
          "internalType": "string",
          "name": "",
          "type": "string"
        },
        {
          "internalType": "uint256",
          "name": "",
          "type": "uint256"
        },
        {
          "internalType": "bool",
          "name": "",
          "type": "bool"
        },
        {
          "internalType": "string",
          "name": "",
          "type": "string"
        }
      ],
      "stateMutability": "view",
      "type": "function"
    },
    {
      "inputs": [],
      "name": "owner",
      "outputs": [
        {
          "internalType": "address",
          "name": "",
          "type": "address"
        }
      ],
      "stateMutability": "view",
      "type": "function"
    },
    {
      "inputs": [
        {
          "internalType": "address",
          "name": "_voterAddress",
          "type": "address"
        },
        {
          "internalType": "string",
          "name": "_voterName",
          "type": "string"
        },
        {
          "internalType": "uint256",
          "name": "_voterId",
          "type": "uint256"
        }
      ],
      "name": "registerVoter",
      "outputs": [],
      "stateMutability": "nonpayable",
      "type": "function"
    },
    {
      "inputs": [
        {
          "internalType": "uint256",
          "name": "",
          "type": "uint256"
        }
      ],
      "name": "voters",
      "outputs": [
        {
          "internalType": "address",
          "name": "voterAddress",
          "type": "address"
        },
        {
          "internalType": "string",
          "name": "voterName",
          "type": "string"
        },
        {
          "internalType": "uint256",
          "name": "voterId",
          "type": "uint256"
        },
        {
          "internalType": "bool",
          "name": "hasVoted",
          "type": "bool"
        },
        {
          "internalType": "string",
          "name": "encryptedBallot",
          "type": "string"
        }
      ],
      "stateMutability": "view",
      "type": "function"
    },
    {
      "inputs": [
        {
          "internalType": "address",
          "name": "",
          "type": "address"
        }
      ],
      "name": "votersInfos",
      "outputs": [
        {
          "internalType": "address",
          "name": "voterAddress",
          "type": "address"
        },
        {
          "internalType": "string",
          "name": "voterName",
          "type": "string"
        },
        {
          "internalType": "uint256",
          "name": "voterId",
          "type": "uint256"
        },
        {
          "internalType": "bool",
          "name": "hasVoted",
          "type": "bool"
        },
        {
          "internalType": "string",
          "name": "encryptedBallot",
          "type": "string"
        }
      ],
      "stateMutability": "view",
      "type": "function"
    },
    {
      "inputs": [],
      "name": "votingEnded",
      "outputs": [
        {
          "internalType": "bool",
          "name": "",
          "type": "bool"
        }
      ],
      "stateMutability": "view",
      "type": "function"
    }
  ],
  "bytecode": "0x60806040526000600260006101000a81548160ff02191690831515021790555034801561002b57600080fd5b5033600660006101000a81548173ffffffffffffffffffffffffffffffffffffffff021916908373ffffffffffffffffffffffffffffffffffffffff1602179055506123b68061007c6000396000f3fe608060405234801561001057600080fd5b50600436106100a95760003560e01c80639530a2f0116100715780639530a2f01461016e5780639d5a05291461018a5780639eeb0e26146101a8578063d07bff0c146101c4578063da58c7d9146101f8578063e740d0671461022c576100a9565b80632e6997fe146100ae5780633477ee2e146100ce57806335b8e820146101015780633eb76b9c146101345780638da5cb5b14610150575b600080fd5b6100b6610260565b6040516100c593929190611808565b60405180910390f35b6100e860048036038101906100e39190611894565b610541565b6040516100f89493929190611929565b60405180910390f35b61011b60048036038101906101169190611894565b610629565b60405161012b9493929190611929565b60405180910390f35b61014e60048036038101906101499190611894565b6107ec565b005b610158610a65565b6040516101659190611975565b60405180910390f35b61018860048036038101906101839190611af1565b610a8b565b005b610192610c6f565b60405161019f9190611b7b565b60405180910390f35b6101c260048036038101906101bd9190611af1565b610c82565b005b6101de60048036038101906101d99190611894565b610f88565b6040516101ef959493929190611b96565b60405180910390f35b610212600480360381019061020d9190611894565b611208565b604051610223959493929190611b96565b60405180910390f35b61024660048036038101906102419190611bf7565b61138b565b604051610257959493929190611b96565b60405180910390f35b6060806060600060018054905090508067ffffffffffffffff811115610289576102886119c6565b5b6040519080825280602002602001820160405280156102b75781602001602082028036833780820191505090505b5093508067ffffffffffffffff8111156102d4576102d36119c6565b5b60405190808252806020026020018201604052801561030757816020015b60608152602001906001900390816102f25790505b5092508067ffffffffffffffff811115610324576103236119c6565b5b6040519080825280602002602001820160405280156103525781602001602082028036833780820191505090505b50915060005b8181101561053a5760006001828154811061037657610375611c24565b5b90600052602060002090600402016040518060800160405290816000820160009054906101000a900473ffffffffffffffffffffffffffffffffffffffff1673ffffffffffffffffffffffffffffffffffffffff1673ffffffffffffffffffffffffffffffffffffffff1681526020016001820180546103f590611c82565b80601f016020809104026020016040519081016040528092919081815260200182805461042190611c82565b801561046e5780601f106104435761010080835404028352916020019161046e565b820191906000526020600020905b81548152906001019060200180831161045157829003601f168201915b5050505050815260200160028201548152602001600382015481525050905080600001518683815181106104a5576104a4611c24565b5b602002602001019073ffffffffffffffffffffffffffffffffffffffff16908173ffffffffffffffffffffffffffffffffffffffff168152505080602001518583815181106104f7576104f6611c24565b5b6020026020010181905250806060015184838151811061051a57610519611c24565b5b60200260200101818152505050808061053290611ce2565b915050610358565b5050909192565b6001818154811061055157600080fd5b90600052602060002090600402016000915090508060000160009054906101000a900473ffffffffffffffffffffffffffffffffffffffff169080600101805461059a90611c82565b80601f01602080910402602001604051908101604052809291908181526020018280546105c690611c82565b80156106135780601f106105e857610100808354040283529160200191610613565b820191906000526020600020905b8154815290600101906020018083116105f657829003601f168201915b5050505050908060020154908060030154905084565b600060606000806000600460008781526020019081526020016000205490506000810361068b576040517f08c379a000000000000000000000000000000000000000000000000000000000815260040161068290611d76565b60405180910390fd5b6001816106989190611d96565b90506000600182815481106106b0576106af611c24565b5b90600052602060002090600402016040518060800160405290816000820160009054906101000a900473ffffffffffffffffffffffffffffffffffffffff1673ffffffffffffffffffffffffffffffffffffffff1673ffffffffffffffffffffffffffffffffffffffff16815260200160018201805461072f90611c82565b80601f016020809104026020016040519081016040528092919081815260200182805461075b90611c82565b80156107a85780601f1061077d576101008083540402835291602001916107a8565b820191906000526020600020905b81548152906001019060200180831161078b57829003601f168201915b505050505081526020016002820154815260200160038201548152505090508060000151816020015182604001518360600151955095509550955050509193509193565b6000600560003373ffffffffffffffffffffffffffffffffffffffff1673ffffffffffffffffffffffffffffffffffffffff16815260200190815260200160002090508060030160009054906101000a900460ff1615610881577f08c379a0afcc32b1a39302f7cb8073359698411ab5fd6e3edb2c02c0b5fba8aa60405161087390611e16565b60405180910390a150610a62565b60006004600084815260200190815260200160002054036108d7577f08c379a0afcc32b1a39302f7cb8073359698411ab5fd6e3edb2c02c0b5fba8aa6040516108c990611e82565b60405180910390a150610a62565b60018160030160006101000a81548160ff021916908315150217905550600180600160046000868152602001908152602001600020546109179190611d96565b8154811061092857610927611c24565b5b906000526020600020906004020160030160008282546109489190611ea2565b9250508190555080600060016003600085600201548152602001908152602001600020546109769190611d96565b8154811061098757610986611c24565b5b90600052602060002090600502016000820160009054906101000a900473ffffffffffffffffffffffffffffffffffffffff168160000160006101000a81548173ffffffffffffffffffffffffffffffffffffffff021916908373ffffffffffffffffffffffffffffffffffffffff16021790555060018201816001019081610a109190612098565b50600282015481600201556003820160009054906101000a900460ff168160030160006101000a81548160ff02191690831515021790555060048201816004019081610a5c9190612098565b50905050505b50565b600660009054906101000a900473ffffffffffffffffffffffffffffffffffffffff1681565b600660009054906101000a900473ffffffffffffffffffffffffffffffffffffffff1673ffffffffffffffffffffffffffffffffffffffff163373ffffffffffffffffffffffffffffffffffffffff1614610b1b576040517f08c379a0000000000000000000000000000000000000000000000000000000008152600401610b12906121f2565b60405180910390fd5b600060405180608001604052808573ffffffffffffffffffffffffffffffffffffffff16815260200184815260200183815260200160008152509050600181908060018154018082558091505060019003906000526020600020906004020160009091909190915060008201518160000160006101000a81548173ffffffffffffffffffffffffffffffffffffffff021916908373ffffffffffffffffffffffffffffffffffffffff1602179055506020820151816001019081610bdf9190612212565b5060408201518160020155606082015181600301555050600060018054905090508060046000858152602001908152602001600020819055508473ffffffffffffffffffffffffffffffffffffffff167fdb93de644fa3188532c974581db3960707c9a2dba57b9b5bac36efbe074227f68585604051610c609291906122e4565b60405180910390a25050505050565b600260009054906101000a900460ff1681565b600660009054906101000a900473ffffffffffffffffffffffffffffffffffffffff1673ffffffffffffffffffffffffffffffffffffffff163373ffffffffffffffffffffffffffffffffffffffff1614610d12576040517f08c379a0000000000000000000000000000000000000000000000000000000008152600401610d09906121f2565b60405180910390fd5b60006040518060a001604052808573ffffffffffffffffffffffffffffffffffffffff168152602001848152602001838152602001600015158152602001604051806020016040528060008152508152509050600081908060018154018082558091505060019003906000526020600020906005020160009091909190915060008201518160000160006101000a81548173ffffffffffffffffffffffffffffffffffffffff021916908373ffffffffffffffffffffffffffffffffffffffff1602179055506020820151816001019081610ded9190612212565b506040820151816002015560608201518160030160006101000a81548160ff0219169083151502179055506080820151816004019081610e2d9190612212565b50505060008080549050905080600360008581526020019081526020016000208190555081600560008773ffffffffffffffffffffffffffffffffffffffff1673ffffffffffffffffffffffffffffffffffffffff16815260200190815260200160002060008201518160000160006101000a81548173ffffffffffffffffffffffffffffffffffffffff021916908373ffffffffffffffffffffffffffffffffffffffff1602179055506020820151816001019081610eed9190612212565b506040820151816002015560608201518160030160006101000a81548160ff0219169083151502179055506080820151816004019081610f2d9190612212565b509050508473ffffffffffffffffffffffffffffffffffffffff167fa50d6d27bb5018444c90c86949443303cdcbcb788cdc25b375e903d52c7103a38585604051610f799291906122e4565b60405180910390a25050505050565b6000606060008060606000600360008881526020019081526020016000205403610fe7576040517f08c379a0000000000000000000000000000000000000000000000000000000008152600401610fde90612360565b60405180910390fd5b6000600160036000898152602001908152602001600020546110099190611d96565b905060008082815481106110205761101f611c24565b5b90600052602060002090600502016040518060a00160405290816000820160009054906101000a900473ffffffffffffffffffffffffffffffffffffffff1673ffffffffffffffffffffffffffffffffffffffff1673ffffffffffffffffffffffffffffffffffffffff16815260200160018201805461109f90611c82565b80601f01602080910402602001604051908101604052809291908181526020018280546110cb90611c82565b80156111185780601f106110ed57610100808354040283529160200191611118565b820191906000526020600020905b8154815290600101906020018083116110fb57829003601f168201915b50505050508152602001600282015481526020016003820160009054906101000a900460ff1615151515815260200160048201805461115690611c82565b80601f016020809104026020016040519081016040528092919081815260200182805461118290611c82565b80156111cf5780601f106111a4576101008083540402835291602001916111cf565b820191906000526020600020905b8154815290600101906020018083116111b257829003601f168201915b50505050508152505090508060000151816020015182604001518360600151846080015196509650965096509650505091939590929450565b6000818154811061121857600080fd5b90600052602060002090600502016000915090508060000160009054906101000a900473ffffffffffffffffffffffffffffffffffffffff169080600101805461126190611c82565b80601f016020809104026020016040519081016040528092919081815260200182805461128d90611c82565b80156112da5780601f106112af576101008083540402835291602001916112da565b820191906000526020600020905b8154815290600101906020018083116112bd57829003601f168201915b5050505050908060020154908060030160009054906101000a900460ff169080600401805461130890611c82565b80601f016020809104026020016040519081016040528092919081815260200182805461133490611c82565b80156113815780601f1061135657610100808354040283529160200191611381565b820191906000526020600020905b81548152906001019060200180831161136457829003601f168201915b5050505050905085565b60056020528060005260406000206000915090508060000160009054906101000a900473ffffffffffffffffffffffffffffffffffffffff16908060010180546113d490611c82565b80601f016020809104026020016040519081016040528092919081815260200182805461140090611c82565b801561144d5780601f106114225761010080835404028352916020019161144d565b820191906000526020600020905b81548152906001019060200180831161143057829003601f168201915b5050505050908060020154908060030160009054906101000a900460ff169080600401805461147b90611c82565b80601f01602080910402602001604051908101604052809291908181526020018280546114a790611c82565b80156114f45780601f106114c9576101008083540402835291602001916114f4565b820191906000526020600020905b8154815290600101906020018083116114d757829003601f168201915b5050505050905085565b600081519050919050565b600082825260208201905092915050565b6000819050602082019050919050565b600073ffffffffffffffffffffffffffffffffffffffff82169050919050565b60006115558261152a565b9050919050565b6115658161154a565b82525050565b6000611577838361155c565b60208301905092915050565b6000602082019050919050565b600061159b826114fe565b6115a58185611509565b93506115b08361151a565b8060005b838110156115e15781516115c8888261156b565b97506115d383611583565b9250506001810190506115b4565b5085935050505092915050565b600081519050919050565b600082825260208201905092915050565b6000819050602082019050919050565b600081519050919050565b600082825260208201905092915050565b60005b83811015611654578082015181840152602081019050611639565b60008484015250505050565b6000601f19601f8301169050919050565b600061167c8261161a565b6116868185611625565b9350611696818560208601611636565b61169f81611660565b840191505092915050565b60006116b68383611671565b905092915050565b6000602082019050919050565b60006116d6826115ee565b6116e081856115f9565b9350836020820285016116f28561160a565b8060005b8581101561172e578484038952815161170f85826116aa565b945061171a836116be565b925060208a019950506001810190506116f6565b50829750879550505050505092915050565b600081519050919050565b600082825260208201905092915050565b6000819050602082019050919050565b6000819050919050565b61177f8161176c565b82525050565b60006117918383611776565b60208301905092915050565b6000602082019050919050565b60006117b582611740565b6117bf818561174b565b93506117ca8361175c565b8060005b838110156117fb5781516117e28882611785565b97506117ed8361179d565b9250506001810190506117ce565b5085935050505092915050565b600060608201905081810360008301526118228186611590565b9050818103602083015261183681856116cb565b9050818103604083015261184a81846117aa565b9050949350505050565b6000604051905090565b600080fd5b600080fd5b6118718161176c565b811461187c57600080fd5b50565b60008135905061188e81611868565b92915050565b6000602082840312156118aa576118a961185e565b5b60006118b88482850161187f565b91505092915050565b6118ca8161154a565b82525050565b600082825260208201905092915050565b60006118ec8261161a565b6118f681856118d0565b9350611906818560208601611636565b61190f81611660565b840191505092915050565b6119238161176c565b82525050565b600060808201905061193e60008301876118c1565b818103602083015261195081866118e1565b905061195f604083018561191a565b61196c606083018461191a565b95945050505050565b600060208201905061198a60008301846118c1565b92915050565b6119998161154a565b81146119a457600080fd5b50565b6000813590506119b681611990565b92915050565b600080fd5b600080fd5b7f4e487b7100000000000000000000000000000000000000000000000000000000600052604160045260246000fd5b6119fe82611660565b810181811067ffffffffffffffff82111715611a1d57611a1c6119c6565b5b80604052505050565b6000611a30611854565b9050611a3c82826119f5565b919050565b600067ffffffffffffffff821115611a5c57611a5b6119c6565b5b611a6582611660565b9050602081019050919050565b82818337600083830152505050565b6000611a94611a8f84611a41565b611a26565b905082815260208101848484011115611ab057611aaf6119c1565b5b611abb848285611a72565b509392505050565b600082601f830112611ad857611ad76119bc565b5b8135611ae8848260208601611a81565b91505092915050565b600080600060608486031215611b0a57611b0961185e565b5b6000611b18868287016119a7565b935050602084013567ffffffffffffffff811115611b3957611b38611863565b5b611b4586828701611ac3565b9250506040611b568682870161187f565b9150509250925092565b60008115159050919050565b611b7581611b60565b82525050565b6000602082019050611b906000830184611b6c565b92915050565b600060a082019050611bab60008301886118c1565b8181036020830152611bbd81876118e1565b9050611bcc604083018661191a565b611bd96060830185611b6c565b8181036080830152611beb81846118e1565b90509695505050505050565b600060208284031215611c0d57611c0c61185e565b5b6000611c1b848285016119a7565b91505092915050565b7f4e487b7100000000000000000000000000000000000000000000000000000000600052603260045260246000fd5b7f4e487b7100000000000000000000000000000000000000000000000000000000600052602260045260246000fd5b60006002820490506001821680611c9a57607f821691505b602082108103611cad57611cac611c53565b5b50919050565b7f4e487b7100000000000000000000000000000000000000000000000000000000600052601160045260246000fd5b6000611ced8261176c565b91507fffffffffffffffffffffffffffffffffffffffffffffffffffffffffffffffff8203611d1f57611d1e611cb3565b5b600182019050919050565b7f43616e646964617465206e6f7420666f756e6400000000000000000000000000600082015250565b6000611d606013836118d0565b9150611d6b82611d2a565b602082019050919050565b60006020820190508181036000830152611d8f81611d53565b9050919050565b6000611da18261176c565b9150611dac8361176c565b9250828203905081811115611dc457611dc3611cb3565b5b92915050565b7f5468697320766f7465722068617320616c726561647920766f74656400000000600082015250565b6000611e00601c836118d0565b9150611e0b82611dca565b602082019050919050565b60006020820190508181036000830152611e2f81611df3565b9050919050565b7f496e76616c69642063616e646964617465204944000000000000000000000000600082015250565b6000611e6c6014836118d0565b9150611e7782611e36565b602082019050919050565b60006020820190508181036000830152611e9b81611e5f565b9050919050565b6000611ead8261176c565b9150611eb88361176c565b9250828201905080821115611ed057611ecf611cb3565b5b92915050565b600081549050611ee581611c82565b9050919050565b60008190508160005260206000209050919050565b60006020601f8301049050919050565b600082821b905092915050565b600060088302611f4e7fffffffffffffffffffffffffffffffffffffffffffffffffffffffffffffffff82611f11565b611f588683611f11565b95508019841693508086168417925050509392505050565b6000819050919050565b6000611f95611f90611f8b8461176c565b611f70565b61176c565b9050919050565b6000819050919050565b611faf83611f7a565b611fc3611fbb82611f9c565b848454611f1e565b825550505050565b600090565b611fd8611fcb565b611fe3818484611fa6565b505050565b5b8181101561200757611ffc600082611fd0565b600181019050611fe9565b5050565b601f82111561204c5761201d81611eec565b61202684611f01565b81016020851015612035578190505b61204961204185611f01565b830182611fe8565b50505b505050565b600082821c905092915050565b600061206f60001984600802612051565b1980831691505092915050565b6000612088838361205e565b9150826002028217905092915050565b8181036120a657505061217e565b6120af82611ed6565b67ffffffffffffffff8111156120c8576120c76119c6565b5b6120d28254611c82565b6120dd82828561200b565b6000601f83116001811461210c57600084156120fa578287015490505b612104858261207c565b865550612177565b601f19841661211a87611eec565b965061212586611eec565b60005b8281101561214d57848901548255600182019150600185019450602081019050612128565b8683101561216a5784890154612166601f89168261205e565b8355505b6001600288020188555050505b5050505050505b565b7f4f6e6c792074686520636f6e7472616374206f776e65722063616e2063616c6c60008201527f20746869732066756e6374696f6e2e0000000000000000000000000000000000602082015250565b60006121dc602f836118d0565b91506121e782612180565b604082019050919050565b6000602082019050818103600083015261220b816121cf565b9050919050565b61221b8261161a565b67ffffffffffffffff811115612234576122336119c6565b5b61223e8254611c82565b61224982828561200b565b600060209050601f83116001811461227c576000841561226a578287015190505b612274858261207c565b8655506122dc565b601f19841661228a86611eec565b60005b828110156122b25784890151825560018201915060208501945060208101905061228d565b868310156122cf57848901516122cb601f89168261205e565b8355505b6001600288020188555050505b505050505050565b600060408201905081810360008301526122fe81856118e1565b905061230d602083018461191a565b9392505050565b7f566f746572206e6f7420666f756e640000000000000000000000000000000000600082015250565b600061234a600f836118d0565b915061235582612314565b602082019050919050565b600060208201905081810360008301526123798161233d565b905091905056fea2646970667358221220199c81c1def5760c4321b895b0ccdbb1f83c0f8689ccaadeaab7a03ff0ee983c64736f6c63430008120033",
  "linkReferences": {},
  "deployedLinkReferences": {}
}